:020000042000DA
:10000000000008200F080020BD0700208508002000
:10001000C1070020C3070020C50700200000000022
:10002000000000000000000000000000C7070020E2
:10003000C907002000000000CB070020CD070020EA
:10004000CF070020D1070020D3070020D5070020CC
:10005000D7070020D9070020DB070020DD0700209C
:10006000DF070020E1070020E3070020E50700206C
:10007000E7070020E9070020EB070020ED0700203C
:10008000EF070020F1070020F3070020F50700200C
:10009000F7070020F9070020FB070020FD070020DC
:1000A000FF070020010800200308002005080020A9
:1000B00007080020090800200B0800200D08002078
:1000C00000B583B01F4B0193019B02221A61019B73
:1000D00002225A61019B1C4A9A61019B1B4ADA6108
:1000E000019B4FF480621A62019B00229A62019B7D
:1000F00000225A62019B0022DA62019B124A9A6432
:10010000019B134ADA64019B10221A65019B0022AD
:100110009A65019B00225A65019B0022DA65019BCA
:1001200007330C49184600F0FBFC019B0A491846AE
:1001300000F0F6FC019B20229A7100BF03B05DF82D
:1001400004FB00BF640F002060090020640B002046
:0C015000DC0F00206C090020700900206A
:10015C0000B589B0039002910192029B0693039B18
:10016C005A1C13465B001344DB00204A13440593CE
:10017C00059B5B69022B29D0022B2ED8002B02D0B9
:10018C00012B13D029E0059800F058FC0490049A38
:10019C00019B9A4202D20023079321E0019B079313
:1001AC00019A0699059800F0E1FB19E0059800F01A
:1001BC0045FC0490019A049B934228BF1346079375
:1001CC00079A0699059800F0D1FB09E0019A069967
:1001DC00059800F066FB079002E00023079300BF30
:1001EC00079B184609B05DF804FB00BF640F0020A4
:1001FC0000B587B00390029101920D4B1B78002B38
:10020C0001D1FFF757FFEFF311834FF0200181F37A
:10021C0011880593019A02990398FFF799FF0490AE
:10022C00059B83F31188049B184607B05DF804FB0B
:04023C00640F00202B
:1002400000B583B000230193019B632B07DC019968
:10025000054800F017FC019B01330193F4E7019B73
:0C02600001330193FBE700BF9C08002065
:10026C0082B001900A4B1B68002B0DDA084B1B68FF
:10027C00074A43F000431360019B18331A68019B33
:10028C00183302321A6000E0FEE702B0704700BF7C
:04029C002CED00E065
:1002A0002DE9F04F89B007460392002303600D4605
:1002B00015F8011B002900F06082DFF85CB4DFF85C
:1002C0005CA4DFF85C9444E2002207E05E2834D1AD
:1002D00042F4805201E042F0400225462C4614F8D8
:1002E000010B2B28F2D81F282DD9A0F120030B2BAE
:1002F00023D801A151F823F0D70200203B030020AE
:100300003B030020290300203B0300203B03002087
:100310003B0300202F0300203B0300203B03002071
:100320003B0300203503002042F08002D5E742F471
:100330000042D2E742F02002CFE7742801D07A28A9
:1003400063D12078AC1C002800F02382A0F12503A3
:10035000DBB2532B67D8A0F12503532B63D8DFE81A
:1003600013F06F00620062006200620062006200CF
:10037000620062006200620062006200620062006D
:10038000620062006200620062006200620062005D
:10039000620062006200620062006200620062004D
:1003A000620062006200620062006200620062003D
:1003B000620062006200620062006200620062002D
:1003C0006200620062006200B000620062006200CF
:1003D00062006200620062006200620062007400FB
:1003E0001B0162006200620062001B016200620089
:1003F000620062007C0015019D00620062008D00B9
:1004000062001F0162006200B20068289BD1207860
:10041000682803D0AC1C42F0040294E742F00802C2
:10042000607802348FE7BB4B1D68002D00F08D8192
:1004300003AB01934FF0FF3300933946A84784E1A3
:100440002521384600F044FB7FE1039B1A1D0392EF
:100450001978384600F03CFB77E112F0080F06D01F
:100460003A68039B191D03911B681A706DE1039B89
:100470001A1D03921B683A681A6066E1039B1A1DF5
:1004800003921D682978002900F05F81384600F04A
:100490001FFB15F8011F0029F8D156E1039B191D18
:1004A00003911B6812F0800F0CBF0026232642F434
:1004B0008072002B40F0DB8030238DF81430012552
:1004C00031E142F4005212F0800F6BD043F2780613
:1004D00043F25803782818BF1E4612F4804F70D09C
:1004E000039B191D03911B6812F0040F5CD01BB213
:1004F000002B5DDA5B422D265838202800F23B8124
:1005000001A151F820F000BFB304002077070020BC
:100510007707002077070020770700207707002063
:100520007707002077070020770700207707002053
:100530007707002077070020C106002077070020FA
:10054000770700207707002077070020C1060020EA
:100550007707002077070020770700207707002023
:100560007707002099060020B304002077070020B9
:10057000770700207707002077070020C1060020BA
:100580007707002077070020B304002012F0800FC7
:100590000CBF00263026A0E742F4804200269CE7EC
:1005A00000269AE7002698E712F0080FA0D0DBB2E9
:1005B00012F0200F40F0F08012F0400F09D02026FA
:1005C0009AE7039B191D03911B6812F0040F49D091
:1005D0009BB25838202800F2A58001A151F820F0E4
:1005E000B304002025070020250700202507002050
:1005F00025070020250700202507002025070020CB
:1006000025070020250700202507002025070020BA
:10061000C10600202507002025070020250700200F
:1006200025070020C10600202507002025070020FF
:100630002507002025070020250700209906002017
:10064000B3040020250700202507002025070020EF
:1006500025070020C10600202507002025070020CF
:10066000B304002012F0080F18BFDBB2B1E705A9F0
:10067000002502F4005208E003F00F001BF8000010
:1006800001F8010B01351B094DD0002AF4D003F00D
:100690000F001AF80000F3E723B930238DF8143067
:1006A000012540E01A4605A9002503F00703303371
:1006B00001F8013B0135D2081346002AF5D132E09A
:1006C00023B930238DF8143001252CE0002502F4E5
:1006D00000424FF02C0E10E008A901EB050CA9FB1D
:1006E0000310C00800EB8001A3EB410130310CF88E
:1006F0000C1C0135092B16D90346002AECD005F055
:1007000003010329E8D108A9294401F80CEC0135BB
:10071000E2E700BFEC0F00209C070020AC070020A0
:10072000CDCCCCCC0025FF2E1BD8F6B9002D0CDD8E
:100730000DF11408013D454429782E46384600F055
:10074000C7F9454505F1FF35F6D1254615F8011BDA
:1007500099B125293FF4B8AD384600F0B9F92C46D7
:10076000F3E7310A384600F0B3F906F07F01384666
:1007700000F0AEF9DAE70025F7E7BB682BB13A687D
:1007800079688A4201D200219954386809B0BDE8DD
:0C079000F08F4FF0FF30F9E72B26ADE6AC
:10079C0030313233343536373839616263646566EB
:1007AC00303132333435363738394142434445469B
:1007BC00FEE7FEE7FEE7FEE7FEE7FEE7FEE7FEE705
:1007CC00FEE7FEE7FEE7FEE7FEE7FEE7FEE7FEE7F5
:1007DC00FEE7FEE7FEE7FEE7FEE7FEE7FEE7FEE7E5
:1007EC00FEE7FEE7FEE7FEE7FEE7FEE7FEE7FEE7D5
:1007FC00FEE7FEE7FEE7FEE7FEE7FEE7FEE7FEE7C5
:10080C00FEE70348854600F002F800F003B8704795
:04081C0000000820B0
:1008200011488546114C20680434004201D08047AD
:10083000F9E70F480F49091A082903DB0022026073
:10084000043001600C480D49884205D0026804302C
:1008500003B4904703BCF7E700208646EC4600202F
:100860000021074A9047FEE700000820F01300200F
:10087000F00F0020F0130020AD080020AD0800208C
:040880004102002011
:100884001EF0040F0CBFEFF30880EFF30980014959
:08089400084700006D0200207E
:10089C0048656C6C6F20576F726C64202564210A5C
:0108AC00004B
:1008AE0000B589B003900291019200230693039B39
:1008BE00DB680593039B1B690493049A059B9A427C
:1008CE0005D9049A059BD31A013B079307E0039BB6
:1008DE009A680499059BCB1A1344013B0793039B1B
:1008EE009A68059BD31A079A934228BF134607931B
:1008FE00079A019B934228BF13460793039B5A689E
:10090E00059B1344079A0299184600F06DF8069A53
:10091E00079B13440693029A079B13440293019A72
:10092E00079BD31A0193059A079B13440593039BC8
:10093E009B68059A9A4201D100230593039B059A61
:10094E00DA60019B002BB5D1069B184609B05DF805
:02095E0004FB98
:100960005465726D696E616C000000005254540051
:0709700053454747455200C3
:1009780000B589B0039002910192039BDB6807934D
:10098800039B9A68079BD31A0693069A019B9A427F
:100998000ED9039B5A68079B1344019A029918467B
:1009A80000F025F8079A019B1A44039BDA601AE0C5
:1009B800069B0593039B5A68079B1344059A029963
:1009C800184600F014F8019A069BD31A0593039B66
:1009D8005868029A069B1344059A194600F007F8CE
:0E09E800039B059ADA6000BF09B05DF804FBBE
:1009F600844640EA010313F0030F18D18446202AE7
:100A06000BD32DE9F007B1E8F807A0E8F807A2F143
:100A16002002202AF7D2BDE8F007042A07D351F8AE
:100A2600043B40F8043BA2F10402042AF7D2002A50
:100A360005D011F8013B00F8013B013AF9D16046B7
:020A46007047F7
:100A480086B00190019B1B690493019BDB680393AB
:100A5800049A039B9A4208D8019B9A68039BD21A6E
:100A6800049B1344013B059304E0049A039BD31AA7
:0C0A7800013B0593059B184606B0704733
:100A84000FB400B5A3B025AB009301A8009B249A32
:100A9400802100F035F82190219B802B06DD01ABED
:100AA400802219460020FFF7A7FB08E0219B002BBA
:100AB40005DD219A01AB19460020FFF79DFB219B20
:0C0AC400184623B05DF804EB04B0704746
:100AD00038B504460846A26842B1236861685D1CC7
:100AE0008D4208BF00208B4208D2D054E3682BB15E
:100AF00021686268914201D22146984723680133F8
:040B0000236038BD79
:100B040010B584B00C461146029000220392019461
:0C0B14001A466846FFF7C2FB04B010BD93
:100B2000024610F0030F16D111F0030F13D12DE977
:100B3000F0004FF001374FF0803351F8044BA4EB35
:100B4000070525EA04051D4002D142F8044BF4E7ED
:100B5000A1F10401F0BC11F8013B02F8013B002BAC
:040B6000F9D1704710
:1013F00001140020640B00208C0400000000000099
:10140000206861680834094204D00022027001306B
:061410000139FBD1704719
:040000052000080FC0
:00000001FF
